:100000000C9436000C949A060C949A060C949A065A
:100010000C949A060C949A060C949A060C949A06E0
:100020000C949A060C949A060C94DF010C949A0690
:100030000C949A060C949A060C949A060C949A06C0
:100040000C949A060C949A060C949A060C949A06B0
:100050000C949A060060012B000D42012B012D80AB
:10006000012D012F000E0D012F01318011241FBE23
:10007000CFE5D8E0DEBFCDBFE4E5F0E040E017C05B
:10008000B591A59135912591059107FD0CC09591EC
:100090008591EF01F92FE82F05900D92A217B30774
:1000A000D9F7FE0104C01D92A217B307E1F7EC36A1
:1000B000F40731F70E9460000C943A06F894FFCFE1
:1000C000CF93DF9300D0CDB7DEB765E084E40E9424
:1000D0007D0666E084E40E947D0667E084E40E9479
:1000E0007D0667E082E40E947D0666E082E40E946D
:1000F0007D060E9402040E946D060E94CB0560E806
:1001000075E280E090E00E942A0580E690E00E947F
:10011000050661E082E00E94140681E790E00E94FB
:1001200005062FEF89E698E1215080409040E1F7E5
:1001300000C000000E9479060E948906833309F4FA
:100140006CC028F4813361F08233A1F1F5CF85339F
:1001500009F4B7C008F48BC0843509F4DEC0ECCFD5
:1001600065E084E40E94910665E084E40E949406C0
:10017000882381F08DE790E00E9405062FEF89E645
:1001800098E1215080409040E1F700C000000E94BB
:100190007906D2CF8DE890E00E9405062FEF89E620
:1001A00098E1215080409040E1F700C000000E949B
:1001B0007906C2CF66E084E40E9491062FEF80E7C3
:1001C00092E0215080409040E1F700C0000066E0DE
:1001D00084E40E949406882381F08EE990E00E94D6
:1001E00005062FEF89E698E1215080409040E1F725
:1001F00000C000000E9479069FCF8EEA90E00E9426
:1002000005062FEF89E698E1215080409040E1F704
:1002100000C000000E9479068FCF67E084E40E944E
:10022000910667E084E40E949406882381F08FEBB6
:1002300090E00E9405062FEF89E698E1215080406A
:100240009040E1F700C000000E94790675CF8FEC66
:1002500090E00E9405062FEF89E698E1215080404A
:100260009040E1F700C000000E94790665CF67E08A
:1002700082E40E94910667E082E40E94940688234B
:1002800081F080EE90E00E9405062FEF89E698E16C
:10029000215080409040E1F700C000000E947906A4
:1002A0004BCF86EE90E00E9405062FEF89E698E19D
:1002B000215080409040E1F700C000000E94790684
:1002C0003BCF0E94450666E082E40E94910666E00C
:1002D00082E40E949406882381F08DEE90E00E94D3
:1002E00005062FEF89E698E1215080409040E1F724
:1002F00000C000000E9479061FCF83EF90E00E94AB
:1003000005062FEF89E698E1215080409040E1F703
:1003100000C000000E9479060FCF0E94CB05CE01DD
:1003200001960E949305CE0101960E948B04909342
:100330002E0180932D0180912D0190912E014097E7
:1003400030F180912D0190912E01839700F58AEF75
:1003500090E00E94050661E082E00E94140689E0B8
:1003600091E00E940506CE0101960E9405068FE0ED
:1003700091E00E9405062FEF89E698E12150804028
:100380009040E1F700C000000E947906D5CE82E1DE
:1003900091E00E94050661E082E00E94140682E27C
:1003A00091E00E9405062FEF89E698E121508040F8
:0E03B0009040E1F700C000000E947906BDCE2B
:1003BE001F920F920FB60F9211242F933F934F93CC
:1003CE005F936F937F938F939F93AF93BF93EF93AF
:1003DE00FF93809130018F5F8093300180913001C7
:1003EE008A3008F458C0109230010E944F06BC01AA
:1003FE0080E090E00E944E0420E030E040E85EE3B2
:10040E000E948D060E94FB0470932C0160932B01B9
:10041E0080912D0190912E0120912B0130912C0174
:10042E0001962817390740F066E082E40E948106A3
:10043E0081E080932F012FC080912D0190912E018C
:10044E0020912B0130912C0101978217930738F0E0
:10045E0066E082E40E94850610922F011CC0209156
:10046E002D0130912E0180912B0190912C01281796
:10047E00390789F480912F01813029F466E082E4F6
:10048E000E94810608C080912F01811104C066E090
:10049E0082E40E948506FF91EF91BF91AF919F91EB
:1004AE008F917F916F915F914F913F912F910F900F
:0804BE000FBE0F901F9018956E
:1004C600823419F118F4813439F008958334B1F186
:1004D600843409F44CC00895413059F42AB381E0BC
:1004E60090E002C0880F991F6A95E2F7822B8ABBBB
:1004F60008952AB381E090E002C0880F991F6A959B
:10050600E2F7809582238ABB0895413059F427B3D8
:1005160081E090E002C0880F991F6A95E2F7822B6E
:1005260087BB089527B381E090E002C0880F991F2A
:100536006A95E2F78095822387BB0895413059F486
:1005460024B381E090E002C0880F991F6A95E2F714
:10055600822B84BB089524B381E090E002C0880F0B
:10056600991F6A95E2F78095822384BB08954130EE
:1005760059F421B381E090E002C0880F991F6A9573
:10058600E2F7822B81BB089521B381E090E002C09F
:10059600880F991F6A95E2F78095822381BB08959B
:1005A600823419F118F4813439F008958334B1F1A5
:1005B600843409F44CC00895413059F42BB381E0DA
:1005C60090E002C0880F991F6A95E2F7822B8BBBD9
:1005D60008952BB381E090E002C0880F991F6A95B9
:1005E600E2F7809582238BBB0895413059F428B3F6
:1005F60081E090E002C0880F991F6A95E2F7822B8E
:1006060088BB089528B381E090E002C0880F991F47
:100616006A95E2F78095822388BB0895413059F4A4
:1006260025B381E090E002C0880F991F6A95E2F732
:10063600822B85BB089525B381E090E002C0880F28
:10064600991F6A95E2F78095822385BB089541300C
:1006560059F422B381E090E002C0880F991F6A9591
:10066600E2F7822B82BB089522B381E090E002C0BC
:10067600880F991F6A95E2F78095822382BB0895B9
:100686000FC00E94580638F00E945F0620F095239E
:1006960011F00C9473060C94970611240C946706BB
:1006A6000E944F0570F3959FC1F3950F50E0551FBB
:1006B600629FF001729FBB27F00DB11D639FAA27B1
:1006C600F00DB11DAA1F649F6627B00DA11D661F00
:1006D600829F2227B00DA11D621F739FB00DA11D21
:1006E600621F839FA00D611D221F749F3327A00DDB
:1006F600611D231F849F600D211D822F762F6A2F77
:1007060011249F5750409AF0F1F088234AF0EE0FDB
:10071600FF1FBB1F661F771F881F91505040A9F708
:100726009E3F510580F00C9473060C9467065F3F5C
:10073600E4F3983ED4F3869577956795B795F79544
:10074600E7959F5FC1F7FE2B880F911D96958795BC
:0407560097F9089572
:10075A008234D9F018F4813431F04DC0833439F140
:10076A008434B9F148C029B381E090E0062E02C072
:10077A00880F991F0A94E2F730E08223932302C07C
:10078A00959587956A95E2F7089526B381E090E0FA
:10079A00062E02C0880F991F0A94E2F730E08223DE
:1007AA00932302C0959587956A95E2F7089523B336
:1007BA0081E090E0062E02C0880F991F0A94E2F7A2
:1007CA0030E08223932302C0959587956A95E2F7D4
:1007DA00089520B381E090E0062E02C0880F991F89
:1007EA000A94E2F730E08223932302C09595879515
:0A07FA006A95E2F7089580E0089583
:1008040041E060E083E40E94630241E061E083E44C
:100814000E94630241E062E083E40E94630241E0DB
:1008240063E083E40E94630241E064E083E40E94A5
:10083400630241E065E083E40E94630241E066E014
:1008440083E40E94630241E067E083E40E94630260
:1008540041E060E082E40E94630241E062E082E4FD
:100864000E94630241E061E082E40E94630240E08E
:1008740062E082E40E94D30288E30E94220681E0BF
:100884000E9422068EE00E9422068FE19EE40197D8
:08089400F1F700C00000089517
:10089C00E89409C097FB3EF490958095709561950E
:1008AC007F4F8F4F9F4F9923A9F0F92F96E9BB27C4
:1008BC009395F695879577956795B795F111F8CF40
:1008CC00FAF4BB0F11F460FF1BC06F5F7F4F8F4FAB
:1008DC009F4F16C0882311F096E911C0772321F0A1
:1008EC009EE8872F762F05C0662371F096E8862F39
:1008FC0070E060E02AF09A95660F771F881FDAF790
:0A090C00880F9695879597F90895D6
:10091600AC01FA0190814F5F5F4F9032D1F3292FDE
:10092600092E000C330B295031092530310588F387
:100936009B3209F540E050E0319602C040E050E0BD
:1009460080E090E06AE02191022E000C330B2053E8
:1009560031092A30310548F4689FD001699FB00DEE
:100966001124CD01821B930BEECF452B49F49195B3
:100976008195910908959D3209F741E050E0DCCF59
:020986000895D2
:100988008234A1F018F4813431F008958334C9F029
:10099800843411F108952BB381E090E002C0880FF0
:1009A800991F6A95E2F782278BBB089528B381E0E7
:1009B80090E002C0880F991F6A95E2F7822788BBEA
:1009C800089525B381E090E002C0880F991F6A95C9
:1009D800E2F7822785BB089522B381E090E002C048
:0E09E800880F991F6A95E2F7822782BB089557
:1009F6000E94570588F09F5798F0B92F9927B7514D
:100A0600B0F0E1F0660F771F881F991F1AF0BA95AC
:100A1600C9F714C0B13091F00E946606B1E008959E
:100A26000C946606672F782F8827B85F39F0B93F90
:100A3600CCF3869577956795B395D9F73EF490955F
:0E0A46008095709561957F4F8F4F9F4F08955B
:100A5400DC01CB01880F991FAA1FBB1F880F991FA8
:100A6400AA1FBB1F9C01AD01220F331F441F551F3A
:100A7400220F331F441F551F60E072E18AE790E0A4
:100A84000E947105215031098AB188618AB980B503
:0A0A9400866880BD30BD29B90895C1
:100A9E0057FD9058440F551F59F05F3F71F0479521
:100AAE00880F97FB991F61F09F3F79F08795089506
:100ABE00121613061406551FF2CF4695F1DF08C025
:100ACE00161617061806991FF1CF86957105610542
:040ADE0008940895DB
:100AE200A1E21A2EAA1BBB1BFD010DC0AA1FBB1F30
:100AF200EE1FFF1FA217B307E407F50720F0A21BA2
:100B0200B30BE40BF50B661F771F881F991F1A940E
:100B120069F760957095809590959B01AC01BD0138
:040B2200CF01089562
:100B2600EF92FF920F931F93CF937C010E94890649
:100B3600F70180838A3061F0C0E0CF5F87010C0F38
:100B4600111D0E948906F80180838A30B1F701C021
:100B56008701F8011082CF911F910F91FF90EF90BE
:020B66000895F0
:100B680041E060E082E40E94D3028FE99FE00197B0
:100B7800F1F700C0000040E060E082E40E94D30288
:0E0B88008FE99FE00197F1F700C0000008958B
:100B96008EE48CBF83B7886083BF83B78F7B83BFA8
:100BA60083B7816083BF83B78D7F83BF83B784603C
:0C0BB60083BF789489B7826089BF0895DE
:100BC200823459F018F4813431F00895833439F0C5
:100BD200843439F008956BBB089568BB089565BBF2
:060BE200089562BB0895B6
:100BE800092E0394000C11F4882352F0BB0F40F433
:100BF800BF2B11F460FF04C06F5F7F4F8F4F9F4F73
:020C080008954D
:100C0A00CF93DF93EC018881882331F021960E94EB
:0E0C1A002E0689918111FBCFDF91CF910895B5
:100C2800813019F48FE7860F06C0823019F48FEBF4
:0C0C3800860F01C080E80E94220608958B
:100C4400682F83E40E94E10540E061E082E40E94B1
:080C5400D3020E94B4050895CB
:100C5C00682F83E40E94E10541E061E082E40E9498
:080C6C00D3020E94B4050895B3
:100C7400EC010E949F060E949E06CE010E94A006DF
:060C8400CE010E949C0657
:100C8A0083B78E7F83BF83B78D7F83BF83B78B7F05
:040C9A0083BF089577
:100C9E00369A349BFECF349A84B125B190E0922BD4
:020CAE000895A7
:0E0CB00000240A941616170618060906089561
:0E0CBE0000240A941216130614060506089563
:0E0CCC00E894BB2766277727CB0197F9089598
:0C0CDA003E9A3F9A379A329A319A089558
:0C0CE60097F99F6780E870E060E00895D7
:080CF20081E00E942206089532
:080CFA0041E00E94630208952D
:080D020041E00E94D3020895B4
:080D0A0040E00E94D3020895AD
:080D12005F9BFECF8CB1089538
:080D1A000E9443030C94F40550
:060D22000E94C4040895C4
:060D28000E94AD030895D6
:060D2E009FEF80EC089528
:040D34000C9400001B
:040D38000E945E00B7
:020D3C00089518
:020D3E00089516
:020D4000089514
:100D420057656C636F6D6520746F20736D6172748B
:100D520000686F6D652073797374656D00524F4F33
:100D62004D31204C6967687473204F4E00524F4FCB
:100D72004D31204C6967687473204F464600524FCC
:100D82004F4D32204C6967687473204F4E00524FAA
:100D92004F4D32204C6967687473204F46460052AB
:100DA2004F4F4D33204C6967687473204F4E005289
:100DB2004F4F4D33204C6967687473204F4646008D
:100DC2005456204F4E005456204F46460041432071
:100DD2004F4E004143204F46460041432054656D2B
:100DE2007065726174757265005365743A200020F3
:100DF200430054656D7065726174757265204F753C
:0B0E020074006F662052616E6765008F
:020E0D001800CB
:00000001FF
